{
  "_format": "hh-sol-artifact-1",
  "contractName": "MedicalReimbursement",
  "sourceName": "contracts/MedicalReimbursement.sol",
  "abi": [
    {
      "inputs": [],
      "stateMutability": "nonpayable",
      "type": "constructor"
    },
    {
      "inputs": [
        {
          "internalType": "address",
          "name": "owner",
          "type": "address"
        }
      ],
      "name": "OwnableInvalidOwner",
      "type": "error"
    },
    {
      "inputs": [
        {
          "internalType": "address",
          "name": "account",
          "type": "address"
        }
      ],
      "name": "OwnableUnauthorizedAccount",
      "type": "error"
    },
    {
      "inputs": [],
      "name": "ReentrancyGuardReentrantCall",
      "type": "error"
    },
    {
      "anonymous": false,
      "inputs": [
        {
          "indexed": true,
          "internalType": "uint256",
          "name": "claimId",
          "type": "uint256"
        },
        {
          "indexed": false,
          "internalType": "uint256",
          "name": "amount",
          "type": "uint256"
        }
      ],
      "name": "ClaimApproved",
      "type": "event"
    },
    {
      "anonymous": false,
      "inputs": [
        {
          "indexed": true,
          "internalType": "uint256",
          "name": "claimId",
          "type": "uint256"
        },
        {
          "indexed": false,
          "internalType": "uint256",
          "name": "amount",
          "type": "uint256"
        }
      ],
      "name": "ClaimPaid",
      "type": "event"
    },
    {
      "anonymous": false,
      "inputs": [
        {
          "indexed": true,
          "internalType": "uint256",
          "name": "claimId",
          "type": "uint256"
        },
        {
          "indexed": false,
          "internalType": "string",
          "name": "reason",
          "type": "string"
        }
      ],
      "name": "ClaimRejected",
      "type": "event"
    },
    {
      "anonymous": false,
      "inputs": [
        {
          "indexed": true,
          "internalType": "uint256",
          "name": "claimId",
          "type": "uint256"
        },
        {
          "indexed": true,
          "internalType": "address",
          "name": "claimant",
          "type": "address"
        },
        {
          "indexed": false,
          "internalType": "uint256",
          "name": "amount",
          "type": "uint256"
        }
      ],
      "name": "ClaimSubmitted",
      "type": "event"
    },
    {
      "anonymous": false,
      "inputs": [
        {
          "indexed": false,
          "internalType": "uint256",
          "name": "amount",
          "type": "uint256"
        }
      ],
      "name": "FundsAdded",
      "type": "event"
    },
    {
      "anonymous": false,
      "inputs": [
        {
          "indexed": false,
          "internalType": "uint256",
          "name": "amount",
          "type": "uint256"
        },
        {
          "indexed": true,
          "internalType": "address",
          "name": "recipient",
          "type": "address"
        }
      ],
      "name": "FundsWithdrawn",
      "type": "event"
    },
    {
      "anonymous": false,
      "inputs": [
        {
          "indexed": true,
          "internalType": "address",
          "name": "previousOwner",
          "type": "address"
        },
        {
          "indexed": true,
          "internalType": "address",
          "name": "newOwner",
          "type": "address"
        }
      ],
      "name": "OwnershipTransferred",
      "type": "event"
    },
    {
      "anonymous": false,
      "inputs": [
        {
          "indexed": true,
          "internalType": "uint256",
          "name": "subscriptionId",
          "type": "uint256"
        }
      ],
      "name": "SubscriptionCancelled",
      "type": "event"
    },
    {
      "anonymous": false,
      "inputs": [
        {
          "indexed": true,
          "internalType": "uint256",
          "name": "subscriptionId",
          "type": "uint256"
        },
        {
          "indexed": true,
          "internalType": "address",
          "name": "subscriber",
          "type": "address"
        },
        {
          "indexed": false,
          "internalType": "uint256",
          "name": "monthlyFee",
          "type": "uint256"
        },
        {
          "indexed": false,
          "internalType": "uint256",
          "name": "coverageLimit",
          "type": "uint256"
        }
      ],
      "name": "SubscriptionCreated",
      "type": "event"
    },
    {
      "anonymous": false,
      "inputs": [
        {
          "indexed": true,
          "internalType": "uint256",
          "name": "subscriptionId",
          "type": "uint256"
        },
        {
          "indexed": false,
          "internalType": "uint256",
          "name": "newEndDate",
          "type": "uint256"
        }
      ],
      "name": "SubscriptionRenewed",
      "type": "event"
    },
    {
      "inputs": [],
      "name": "addFunds",
      "outputs": [],
      "stateMutability": "payable",
      "type": "function"
    },
    {
      "inputs": [
        {
          "internalType": "uint256",
          "name": "_claimId",
          "type": "uint256"
        },
        {
          "internalType": "uint256",
          "name": "_verifiedAmount",
          "type": "uint256"
        }
      ],
      "name": "approveClaim",
      "outputs": [],
      "stateMutability": "nonpayable",
      "type": "function"
    },
    {
      "inputs": [
        {
          "internalType": "uint256",
          "name": "_subscriptionId",
          "type": "uint256"
        }
      ],
      "name": "cancelSubscription",
      "outputs": [],
      "stateMutability": "nonpayable",
      "type": "function"
    },
    {
      "inputs": [],
      "name": "claimProcessingFee",
      "outputs": [
        {
          "internalType": "uint256",
          "name": "",
          "type": "uint256"
        }
      ],
      "stateMutability": "view",
      "type": "function"
    },
    {
      "inputs": [
        {
          "internalType": "uint256",
          "name": "",
          "type": "uint256"
        }
      ],
      "name": "claims",
      "outputs": [
        {
          "internalType": "uint256",
          "name": "claimId",
          "type": "uint256"
        },
        {
          "internalType": "address",
          "name": "claimant",
          "type": "address"
        },
        {
          "internalType": "uint256",
          "name": "subscriptionId",
          "type": "uint256"
        },
        {
          "internalType": "uint256",
          "name": "amount",
          "type": "uint256"
        },
        {
          "internalType": "string",
          "name": "medicalDocumentHash",
          "type": "string"
        },
        {
          "internalType": "uint256",
          "name": "submissionDate",
          "type": "uint256"
        },
        {
          "internalType": "enum MedicalReimbursement.ClaimStatus",
          "name": "status",
          "type": "uint8"
        },
        {
          "internalType": "string",
          "name": "rejectionReason",
          "type": "string"
        }
      ],
      "stateMutability": "view",
      "type": "function"
    },
    {
      "inputs": [
        {
          "internalType": "uint256",
          "name": "_monthlyFee",
          "type": "uint256"
        },
        {
          "internalType": "uint256",
          "name": "_coverageLimit",
          "type": "uint256"
        },
        {
          "internalType": "uint256",
          "name": "_deductible",
          "type": "uint256"
        }
      ],
      "name": "createSubscription",
      "outputs": [],
      "stateMutability": "payable",
      "type": "function"
    },
    {
      "inputs": [
        {
          "internalType": "address",
          "name": "_user",
          "type": "address"
        }
      ],
      "name": "getUserClaims",
      "outputs": [
        {
          "internalType": "uint256[]",
          "name": "",
          "type": "uint256[]"
        }
      ],
      "stateMutability": "view",
      "type": "function"
    },
    {
      "inputs": [
        {
          "internalType": "address",
          "name": "_user",
          "type": "address"
        }
      ],
      "name": "getUserSubscriptions",
      "outputs": [
        {
          "internalType": "uint256[]",
          "name": "",
          "type": "uint256[]"
        }
      ],
      "stateMutability": "view",
      "type": "function"
    },
    {
      "inputs": [
        {
          "internalType": "address",
          "name": "_address",
          "type": "address"
        }
      ],
      "name": "isVerifier",
      "outputs": [
        {
          "internalType": "bool",
          "name": "",
          "type": "bool"
        }
      ],
      "stateMutability": "view",
      "type": "function"
    },
    {
      "inputs": [],
      "name": "minimumSubscriptionDuration",
      "outputs": [
        {
          "internalType": "uint256",
          "name": "",
          "type": "uint256"
        }
      ],
      "stateMutability": "view",
      "type": "function"
    },
    {
      "inputs": [],
      "name": "owner",
      "outputs": [
        {
          "internalType": "address",
          "name": "",
          "type": "address"
        }
      ],
      "stateMutability": "view",
      "type": "function"
    },
    {
      "inputs": [
        {
          "internalType": "uint256",
          "name": "_claimId",
          "type": "uint256"
        }
      ],
      "name": "processPayment",
      "outputs": [],
      "stateMutability": "nonpayable",
      "type": "function"
    },
    {
      "inputs": [
        {
          "internalType": "uint256",
          "name": "_claimId",
          "type": "uint256"
        },
        {
          "internalType": "string",
          "name": "_reason",
          "type": "string"
        }
      ],
      "name": "rejectClaim",
      "outputs": [],
      "stateMutability": "nonpayable",
      "type": "function"
    },
    {
      "inputs": [
        {
          "internalType": "uint256",
          "name": "_subscriptionId",
          "type": "uint256"
        }
      ],
      "name": "renewSubscription",
      "outputs": [],
      "stateMutability": "payable",
      "type": "function"
    },
    {
      "inputs": [],
      "name": "renounceOwnership",
      "outputs": [],
      "stateMutability": "nonpayable",
      "type": "function"
    },
    {
      "inputs": [
        {
          "internalType": "uint256",
          "name": "_subscriptionId",
          "type": "uint256"
        },
        {
          "internalType": "uint256",
          "name": "_amount",
          "type": "uint256"
        },
        {
          "internalType": "string",
          "name": "_medicalDocumentHash",
          "type": "string"
        }
      ],
      "name": "submitClaim",
      "outputs": [],
      "stateMutability": "payable",
      "type": "function"
    },
    {
      "inputs": [
        {
          "internalType": "uint256",
          "name": "",
          "type": "uint256"
        }
      ],
      "name": "subscriptions",
      "outputs": [
        {
          "internalType": "uint256",
          "name": "subscriptionId",
          "type": "uint256"
        },
        {
          "internalType": "address",
          "name": "subscriber",
          "type": "address"
        },
        {
          "internalType": "uint256",
          "name": "monthlyFee",
          "type": "uint256"
        },
        {
          "internalType": "uint256",
          "name": "coverageLimit",
          "type": "uint256"
        },
        {
          "internalType": "uint256",
          "name": "deductible",
          "type": "uint256"
        },
        {
          "internalType": "uint256",
          "name": "startDate",
          "type": "uint256"
        },
        {
          "internalType": "uint256",
          "name": "endDate",
          "type": "uint256"
        },
        {
          "internalType": "bool",
          "name": "isActive",
          "type": "bool"
        }
      ],
      "stateMutability": "view",
      "type": "function"
    },
    {
      "inputs": [],
      "name": "totalFunds",
      "outputs": [
        {
          "internalType": "uint256",
          "name": "",
          "type": "uint256"
        }
      ],
      "stateMutability": "view",
      "type": "function"
    },
    {
      "inputs": [
        {
          "internalType": "address",
          "name": "newOwner",
          "type": "address"
        }
      ],
      "name": "transferOwnership",
      "outputs": [],
      "stateMutability": "nonpayable",
      "type": "function"
    },
    {
      "inputs": [
        {
          "internalType": "uint256",
          "name": "_newFee",
          "type": "uint256"
        }
      ],
      "name": "updateClaimProcessingFee",
      "outputs": [],
      "stateMutability": "nonpayable",
      "type": "function"
    },
    {
      "inputs": [
        {
          "internalType": "uint256",
          "name": "_newDuration",
          "type": "uint256"
        }
      ],
      "name": "updateMinimumSubscriptionDuration",
      "outputs": [],
      "stateMutability": "nonpayable",
      "type": "function"
    },
    {
      "inputs": [
        {
          "internalType": "address",
          "name": "",
          "type": "address"
        },
        {
          "internalType": "uint256",
          "name": "",
          "type": "uint256"
        }
      ],
      "name": "userClaims",
      "outputs": [
        {
          "internalType": "uint256",
          "name": "",
          "type": "uint256"
        }
      ],
      "stateMutability": "view",
      "type": "function"
    },
    {
      "inputs": [
        {
          "internalType": "address",
          "name": "",
          "type": "address"
        },
        {
          "internalType": "uint256",
          "name": "",
          "type": "uint256"
        }
      ],
      "name": "userSubscriptions",
      "outputs": [
        {
          "internalType": "uint256",
          "name": "",
          "type": "uint256"
        }
      ],
      "stateMutability": "view",
      "type": "function"
    },
    {
      "inputs": [
        {
          "internalType": "uint256",
          "name": "",
          "type": "uint256"
        }
      ],
      "name": "verifications",
      "outputs": [
        {
          "internalType": "uint256",
          "name": "claimId",
          "type": "uint256"
        },
        {
          "internalType": "bool",
          "name": "isVerified",
          "type": "bool"
        },
        {
          "internalType": "uint256",
          "name": "verifiedAmount",
          "type": "uint256"
        },
        {
          "internalType": "address",
          "name": "verifier",
          "type": "address"
        },
        {
          "internalType": "uint256",
          "name": "verificationDate",
          "type": "uint256"
        }
      ],
      "stateMutability": "view",
      "type": "function"
    },
    {
      "inputs": [
        {
          "internalType": "uint256",
          "name": "_amount",
          "type": "uint256"
        },
        {
          "internalType": "address",
          "name": "_recipient",
          "type": "address"
        }
      ],
      "name": "withdrawFunds",
      "outputs": [],
      "stateMutability": "nonpayable",
      "type": "function"
    },
    {
      "stateMutability": "payable",
      "type": "receive"
    }
  ],
  "bytecode": "0x60806040526000600255600060035562278d00600a5566038d7ea4c68000600b5534801561002c57600080fd5b506001600055338061005857604051631e4fbdf760e01b81526000600482015260240160405180910390fd5b61006181610071565b50600160028190556003556100c3565b600180546001600160a01b038381166001600160a01b0319831681179093556040519116919082907f8be0079c531659141344cd1fd0a4f28419497f9722a3daafe3b4186f6b6457e090600090a35050565b611ea3806100d26000396000f3fe60806040526004361061016a5760003560e01c80637bcb4a64116100d1578063a98115c51161008a578063c95d6edc11610064578063c95d6edc1461054b578063ca9748ea1461056b578063d71bb37b1461058b578063f2fde38b1461059e57600080fd5b8063a98115c514610490578063b230642d146104b0578063b90b0a10146104c357600080fd5b80637bcb4a64146103d65780637fbe658c146103f65780638da5cb5b14610416578063968ed6001461043e578063a26759cb14610454578063a888c2cd1461045c57600080fd5b80633577a5ad116101235780633577a5ad1461032b5780633a2f84851461034b57806362cdb2821461036b57806364e9d5621461038b578063715018a6146103a1578063744bfe61146103b657600080fd5b806306964de7146101c057806321235083146101d557806325cc0be0146101f55780632d5bbf601461021e5780632e6ca588146102ce57806333105218146102fb57600080fd5b366101bb573460096000828254610181919061186d565b90915550506040513481527fd30fc8a1b5907be76206421a3040262f1f6aed0d418c05312ef5ff8de0c9ae4c9060200160405180910390a1005b600080fd5b6101d36101ce3660046118cf565b6105be565b005b3480156101e157600080fd5b506101d36101f0366004611922565b61097e565b34801561020157600080fd5b5061020b600b5481565b6040519081526020015b60405180910390f35b34801561022a57600080fd5b50610289610239366004611922565b60046020819052600091825260409091208054600182015460028301546003840154948401546005850154600686015460079096015494966001600160a01b039094169592949192909160ff1688565b604080519889526001600160a01b039097166020890152958701949094526060860192909252608085015260a084015260c0830152151560e082015261010001610215565b3480156102da57600080fd5b506102ee6102e9366004611957565b6109f3565b6040516102159190611979565b34801561030757600080fd5b5061031b610316366004611957565b610a5f565b6040519015158152602001610215565b34801561033757600080fd5b506101d36103463660046119bd565b610a8e565b34801561035757600080fd5b506101d3610366366004611922565b610b8f565b34801561037757600080fd5b506101d3610386366004611922565b610de8565b34801561039757600080fd5b5061020b600a5481565b3480156103ad57600080fd5b506101d3610df5565b3480156103c257600080fd5b506101d36103d1366004611a09565b610e09565b3480156103e257600080fd5b506102ee6103f1366004611957565b610f96565b34801561040257600080fd5b506101d3610411366004611a35565b611000565b34801561042257600080fd5b506001546040516001600160a01b039091168152602001610215565b34801561044a57600080fd5b5061020b60095481565b6101d36111cd565b34801561046857600080fd5b5061047c610477366004611922565b611219565b604051610215989796959493929190611ab3565b34801561049c57600080fd5b506101d36104ab366004611922565b61137e565b6101d36104be366004611b34565b61138b565b3480156104cf57600080fd5b5061051a6104de366004611922565b60066020526000908152604090208054600182015460028301546003840154600490940154929360ff9092169290916001600160a01b03169085565b604080519586529315156020860152928401919091526001600160a01b03166060830152608082015260a001610215565b34801561055757600080fd5b5061020b610566366004611b60565b611581565b34801561057757600080fd5b5061020b610586366004611b60565b6115b2565b6101d3610599366004611922565b6115ce565b3480156105aa57600080fd5b506101d36105b9366004611957565b611773565b600084815260046020526040902060070154849060ff166106205760405162461bcd60e51b8152602060048201526017602482015276537562736372697074696f6e206e6f742061637469766560481b60448201526064015b60405180910390fd5b6000818152600460205260409020600601544211156106785760405162461bcd60e51b815260206004820152601460248201527314dd589cd8dc9a5c1d1a5bdb88195e1c1a5c995960621b6044820152606401610617565b6106806117ae565b600b543410156106d25760405162461bcd60e51b815260206004820152601b60248201527f496e73756666696369656e742070726f63657373696e672066656500000000006044820152606401610617565b600085815260046020526040902060018101546001600160a01b0316331461070c5760405162461bcd60e51b815260040161061790611b8a565b80600301548511156107605760405162461bcd60e51b815260206004820152601d60248201527f416d6f756e74206578636565647320636f766572616765206c696d69740000006044820152606401610617565b806004015485116107b35760405162461bcd60e51b815260206004820152601760248201527f416d6f756e742062656c6f772064656475637469626c650000000000000000006044820152606401610617565b6003805490819060006107c583611bba565b9190505550604051806101000160405280828152602001336001600160a01b0316815260200188815260200187815260200186868080601f016020809104026020016040519081016040528093929190818152602001838380828437600092018290525093855250504260208401525060409091019081526040805160208082018352600080835293810191909152848352600581529181902083518155918301516001830180546001600160a01b0319166001600160a01b03909216919091179055820151600282015560608201516003820155608082015160048201906108ae9082611c74565b5060a0820151600582015560c082015160068201805460ff191660018360048111156108dc576108dc611a9d565b021790555060e082015160078201906108f59082611c74565b505033600090815260086020908152604082208054600181018255908352908220018390556009805434935090919061092f90849061186d565b9091555050604051868152339082907f01bc0f9d4f6b0c66e2bda5f433d9760d7eb48e89b73ffea517a7ba5e4fe0657d9060200160405180910390a350506109776001600055565b5050505050565b600081815260046020526040902060018101546001600160a01b031633146109b85760405162461bcd60e51b815260040161061790611b8a565b60078101805460ff1916905560405182907fbd2bcea75d16a85f005cd83447e0de57341bf926fe7419e6d553663e91ab4da790600090a25050565b6001600160a01b038116600090815260076020908152604091829020805483518184028101840190945280845260609392830182828015610a5357602002820191906000526020600020905b815481526020019060010190808311610a3f575b50505050509050919050565b6000610a736001546001600160a01b031690565b6001600160a01b0316826001600160a01b0316149050919050565b6001546001600160a01b0316331480610aab5750610aab33610a5f565b610ac75760405162461bcd60e51b815260040161061790611d34565b600083815260056020526040812090600682015460ff166004811115610aef57610aef611a9d565b14610b305760405162461bcd60e51b8152602060048201526011602482015270436c61696d206e6f742070656e64696e6760781b6044820152606401610617565b60068101805460ff1916600317905560078101610b4e838583611d6b565b50837f43cc3d080e025c67c26d62b18bd442511dc9c76c8aa3f48cc0e8f456173e61f18484604051610b81929190611e2b565b60405180910390a250505050565b6001546001600160a01b0316331480610bac5750610bac33610a5f565b610bc85760405162461bcd60e51b815260040161061790611d34565b610bd06117ae565b60008181526005602052604090206002600682015460ff166004811115610bf957610bf9611a9d565b14610c3b5760405162461bcd60e51b815260206004820152601260248201527110db185a5b481b9bdd08185c1c1c9bdd995960721b6044820152606401610617565b6000828152600660205260409020600181015460ff16610c925760405162461bcd60e51b815260206004820152601260248201527110db185a5b481b9bdd081d995c9a599a595960721b6044820152606401610617565b6002810154600954811115610cde5760405162461bcd60e51b8152602060048201526012602482015271496e73756666696369656e742066756e647360701b6044820152606401610617565b60068301805460ff1916600417905560098054829190600090610d02908490611e5a565b909155505060018301546040516000916001600160a01b03169083908381818185875af1925050503d8060008114610d56576040519150601f19603f3d011682016040523d82523d6000602084013e610d5b565b606091505b5050905080610d9d5760405162461bcd60e51b815260206004820152600e60248201526d14185e5b595b9d0819985a5b195960921b6044820152606401610617565b847fb0727183796e52c5bb00a257c1eb36d8e94dbee5d6d87e259287e3372ae39ace83604051610dcf91815260200190565b60405180910390a250505050610de56001600055565b50565b610df06117d8565b600a55565b610dfd6117d8565b610e076000611805565b565b610e116117d8565b600954821115610e585760405162461bcd60e51b8152602060048201526012602482015271496e73756666696369656e742066756e647360701b6044820152606401610617565b6001600160a01b038116610ea25760405162461bcd60e51b8152602060048201526011602482015270125b9d985b1a59081c9958da5c1a595b9d607a1b6044820152606401610617565b8160096000828254610eb49190611e5a565b90915550506040516000906001600160a01b0383169084908381818185875af1925050503d8060008114610f04576040519150601f19603f3d011682016040523d82523d6000602084013e610f09565b606091505b5050905080610f4e5760405162461bcd60e51b815260206004820152601160248201527015da5d1a191c985dd85b0819985a5b1959607a1b6044820152606401610617565b816001600160a01b03167f6141b54b56b8a52a8c6f5cd2a857f6117b18ffbf4d46bd3106f300a839cbf5ea84604051610f8991815260200190565b60405180910390a2505050565b6001600160a01b038116600090815260086020908152604091829020805483518184028101840190945280845260609392830182828015610a535760200282019190600052602060002090815481526020019060010190808311610a3f5750505050509050919050565b6001546001600160a01b031633148061101d575061101d33610a5f565b6110395760405162461bcd60e51b815260040161061790611d34565b600082815260056020526040812090600682015460ff16600481111561106157611061611a9d565b146110a25760405162461bcd60e51b8152602060048201526011602482015270436c61696d206e6f742070656e64696e6760781b6044820152606401610617565b80600301548211156111025760405162461bcd60e51b8152602060048201526024808201527f566572696669656420616d6f756e74206578636565647320636c61696d20616d6044820152631bdd5b9d60e21b6064820152608401610617565b6006810180546002919060ff191660018302179055506040805160a081018252848152600160208083018281528385018781523360608601908152426080870190815260008b815260068652889020965187559251948601805460ff19169515159590951790945551600285015591516003840180546001600160a01b0319166001600160a01b039092169190911790559051600490920191909155905183815284917f638d892b8630b775fea5d7a52b209e8bfa1d90c32b57cd37208ac84d4bcd6dcb9101610f89565b34600960008282546111df919061186d565b90915550506040513481527fd30fc8a1b5907be76206421a3040262f1f6aed0d418c05312ef5ff8de0c9ae4c9060200160405180910390a1565b6005602052600090815260409020805460018201546002830154600384015460048501805494956001600160a01b03909416949293919261125990611be9565b80601f016020809104026020016040519081016040528092919081815260200182805461128590611be9565b80156112d25780601f106112a7576101008083540402835291602001916112d2565b820191906000526020600020905b8154815290600101906020018083116112b557829003601f168201915b50505050600583015460068401546007850180549495929460ff9092169350906112fb90611be9565b80601f016020809104026020016040519081016040528092919081815260200182805461132790611be9565b80156113745780601f1061134957610100808354040283529160200191611374565b820191906000526020600020905b81548152906001019060200180831161135757829003601f168201915b5050505050905088565b6113866117d8565b600b55565b823410156113d25760405162461bcd60e51b8152602060048201526014602482015273125b9cdd59999a58da595b9d081c185e5b595b9d60621b6044820152606401610617565b8082116114215760405162461bcd60e51b815260206004820152601f60248201527f436f766572616765206d757374206578636565642064656475637469626c65006044820152606401610617565b60028054908190600061143383611bba565b9190505550604051806101000160405280828152602001336001600160a01b03168152602001858152602001848152602001838152602001428152602001600a544261147f919061186d565b815260016020918201819052600084815260048084526040808320865181558686015181860180546001600160a01b0319166001600160a01b039092169190911790558682015160028201556060870151600382015560808701519281019290925560a0860151600583015560c0860151600683015560e0909501516007918201805460ff19169115159190911790553382528352928320805491820181558352908220018290556009805434929061153990849061186d565b90915550506040805185815260208101859052339183917f15bc7fb1465b291df82a6f54fa1cad8d565a3534e3bc5e2d2811004211dbeeaa910160405180910390a350505050565b6007602052816000526040600020818154811061159d57600080fd5b90600052602060002001600091509150505481565b6008602052816000526040600020818154811061159d57600080fd5b600081815260046020526040902060070154819060ff1661162b5760405162461bcd60e51b8152602060048201526017602482015276537562736372697074696f6e206e6f742061637469766560481b6044820152606401610617565b6000818152600460205260409020600601544211156116835760405162461bcd60e51b815260206004820152601460248201527314dd589cd8dc9a5c1d1a5bdb88195e1c1a5c995960621b6044820152606401610617565b600082815260046020526040902060018101546001600160a01b031633146116bd5760405162461bcd60e51b815260040161061790611b8a565b80600201543410156117085760405162461bcd60e51b8152602060048201526014602482015273125b9cdd59999a58da595b9d081c185e5b595b9d60621b6044820152606401610617565b600a5481600601600082825461171e919061186d565b925050819055503460096000828254611737919061186d565b9091555050600681015460405190815283907f328f4610a15d0e6c197e13cb1b184720c7e4e7dcf6e07423b7625da3128358b190602001610f89565b61177b6117d8565b6001600160a01b0381166117a557604051631e4fbdf760e01b815260006004820152602401610617565b610de581611805565b6002600054036117d157604051633ee5aeb560e01b815260040160405180910390fd5b6002600055565b6001546001600160a01b03163314610e075760405163118cdaa760e01b8152336004820152602401610617565b600180546001600160a01b038381166001600160a01b0319831681179093556040519116919082907f8be0079c531659141344cd1fd0a4f28419497f9722a3daafe3b4186f6b6457e090600090a35050565b634e487b7160e01b600052601160045260246000fd5b8082018082111561188057611880611857565b92915050565b60008083601f84011261189857600080fd5b50813567ffffffffffffffff8111156118b057600080fd5b6020830191508360208285010111156118c857600080fd5b9250929050565b600080600080606085870312156118e557600080fd5b8435935060208501359250604085013567ffffffffffffffff81111561190a57600080fd5b61191687828801611886565b95989497509550505050565b60006020828403121561193457600080fd5b5035919050565b80356001600160a01b038116811461195257600080fd5b919050565b60006020828403121561196957600080fd5b6119728261193b565b9392505050565b6020808252825182820181905260009190848201906040850190845b818110156119b157835183529284019291840191600101611995565b50909695505050505050565b6000806000604084860312156119d257600080fd5b83359250602084013567ffffffffffffffff8111156119f057600080fd5b6119fc86828701611886565b9497909650939450505050565b60008060408385031215611a1c57600080fd5b82359150611a2c6020840161193b565b90509250929050565b60008060408385031215611a4857600080fd5b50508035926020909101359150565b6000815180845260005b81811015611a7d57602081850181015186830182015201611a61565b506000602082860101526020601f19601f83011685010191505092915050565b634e487b7160e01b600052602160045260246000fd5b60006101008a835260018060a01b038a166020840152886040840152876060840152806080840152611ae781840188611a57565b90508560a084015260058510611b0d57634e487b7160e01b600052602160045260246000fd5b8460c084015282810360e0840152611b258185611a57565b9b9a5050505050505050505050565b600080600060608486031215611b4957600080fd5b505081359360208301359350604090920135919050565b60008060408385031215611b7357600080fd5b611b7c8361193b565b946020939093013593505050565b6020808252601690820152752737ba1039bab139b1b934b83a34b7b71037bbb732b960511b604082015260600190565b600060018201611bcc57611bcc611857565b5060010190565b634e487b7160e01b600052604160045260246000fd5b600181811c90821680611bfd57607f821691505b602082108103611c1d57634e487b7160e01b600052602260045260246000fd5b50919050565b601f821115611c6f576000816000526020600020601f850160051c81016020861015611c4c5750805b601f850160051c820191505b81811015611c6b57828155600101611c58565b5050505b505050565b815167ffffffffffffffff811115611c8e57611c8e611bd3565b611ca281611c9c8454611be9565b84611c23565b602080601f831160018114611cd75760008415611cbf5750858301515b600019600386901b1c1916600185901b178555611c6b565b600085815260208120601f198616915b82811015611d0657888601518255948401946001909101908401611ce7565b5085821015611d245787850151600019600388901b60f8161c191681555b5050505050600190811b01905550565b60208082526017908201527f4e6f7420617574686f72697a6564207665726966696572000000000000000000604082015260600190565b67ffffffffffffffff831115611d8357611d83611bd3565b611d9783611d918354611be9565b83611c23565b6000601f841160018114611dcb5760008515611db35750838201355b600019600387901b1c1916600186901b178355610977565b600083815260209020601f19861690835b82811015611dfc5786850135825560209485019460019092019101611ddc565b5086821015611e195760001960f88860031b161c19848701351681555b505060018560011b0183555050505050565b60208152816020820152818360408301376000818301604090810191909152601f909201601f19160101919050565b818103818111156118805761188061185756fea26469706673582212208dd4838e42d8171d1d4e001699837c3ff3c01e18fbb37b067dc7c99eec4d3d7f64736f6c63430008170033",
  "linkReferences": {},
  "deployedLinkReferences": {}
}